:100000000C9462000C947F000C947F000C947F0091
:100010000C947F000C947F000C947F000C947F0064
:100020000C947F000C947F000C947F000C947F0054
:100030000C947F000C947F000C947F000C947F0044
:100040000C949E010C947F000C947F000C947F0014
:100050000C947F000C947F000C947F000C947F0024
:100060000C947F000C947F00000000002300260009
:10007000290000000000240027002A0000000000E2
:10008000250028002B0004040404040404040202D4
:100090000202020203030303030301020408102007
:1000A0004080010204081020010204081020000012
:1000B0000008000201000003040700000000000027
:1000C0000000330411241FBECFEFD8E0DEBFCDBF48
:1000D00021E0A0E0B1E001C01D92A334B207E1F736
:1000E00010E0C2E6D0E004C02197FE010E94740433
:1000F000C136D107C9F70E94E8010C947A040C9428
:100100000000833081F028F4813099F08230A1F032
:1001100008958730A9F08830B9F08430D1F4809107
:1001200080008F7D03C0809180008F778093800056
:10013000089584B58F7702C084B58F7D84BD0895FE
:100140008091B0008F7703C08091B0008F7D809345
:10015000B00008951F93CF93DF93282F30E0F9016B
:10016000E255FF4F8491F901E656FF4FD491F90112
:10017000EA57FF4FC491CC23C1F0162F81110E9482
:100180008100EC2FF0E0EE0FFF1FE458FF4FA59128
:10019000B4919FB7F894111104C08C91D095D823D5
:1001A00002C0EC91DE2BDC939FBFDF91CF911F91BA
:1001B0000895CF93DF9390E0FC01E656FF4F249122
:1001C000FC01EA57FF4F8491882361F190E0880F8A
:1001D000991FFC01EE58FF4FC591D491FC01E458E2
:1001E000FF4FA591B491611109C09FB7F894888120
:1001F000209582238883EC912E230BC0623061F41A
:100200009FB7F8948881322F309583238883EC91AF
:100210002E2B2C939FBF06C08FB7F894E8812E2B0E
:1002200028838FBFDF91CF9108953FB7F8948091D5
:100230003F0190914001A0914101B091420126B54A
:10024000A89B05C02F3F19F00196A11DB11D3FBF0E
:10025000BA2FA92F982F8827820F911DA11DB11D9C
:10026000BC01CD0142E0660F771F881F991F4A9598
:10027000D1F708958F929F92AF92BF92CF92DF9263
:10028000EF92FF926B017C010E9415014B015C0112
:10029000C114D104E104F104F1F00E941501DC0164
:1002A000CB0188199909AA09BB09883E9340A10589
:1002B000B10570F321E0C21AD108E108F10888EE17
:1002C000880E83E0981EA11CB11CC114D104E10466
:1002D000F10419F7DDCFFF90EF90DF90CF90BF9042
:1002E000AF909F908F90089561E08BE00E94AA00EC
:1002F00068EE73E080E090E00E943A0160E08BE0FD
:100300000C94AA0061E08CE00E94AA0068EE73E001
:1003100080E090E00E943A0160E08CE00C94AA003A
:1003200061E08DE00E94AA0068EE73E080E090E05A
:100330000E943A0160E08DE00C94AA001F920F9297
:100340000FB60F9211242F933F938F939F93AF93E8
:10035000BF9380913B0190913C01A0913D01B091F0
:100360003E0130913A0123E0230F2D3720F401960E
:10037000A11DB11D05C026E8230F0296A11DB11DC8
:1003800020933A0180933B0190933C01A0933D015F
:10039000B0933E0180913F0190914001A0914101B5
:1003A000B09142010196A11DB11D80933F01909330
:1003B0004001A0934101B0934201BF91AF919F9141
:1003C0008F913F912F910F900FBE0F901F90189516
:1003D000789484B5826084BD84B5816084BD85B520
:1003E000826085BD85B5816085BD80916E0081602C
:1003F00080936E00109281008091810082608093D2
:1004000081008091810081608093810080918000D3
:100410008160809380008091B10084608093B100FE
:100420008091B00081608093B00080917A008460F8
:1004300080937A0080917A00826080937A00809124
:100440007A00816080937A0080917A00806880933E
:100450007A001092C10061E08DE00E94D90061E055
:100460008CE00E94D90061E08BE00E94D90084E713
:1004700091E0909311018093100180913801909147
:1004800039018230910514F482E090E090933901B3
:100490008093380182E891E090930B0180930A01E8
:1004A00080E991E0909323018093220190E0892ECE
:1004B00090E0992EC2E0D0E023E0222E312C01E022
:1004C00010E036E0A32EB12C209100013091010103
:1004D00037FDBCC13327F901E255FF4F8491F90183
:1004E000E656FF4F7490F901EA57FF4F649066207B
:1004F000A1F081110E948100E62DF0E0EE0FFF1FB8
:10050000E859FF4FA591B491EC917E2291E080E0F3
:1005100009F490E0292F382F02C020E030E040910C
:100520000801509109018FB7F894C0903B01D09019
:100530003C01E0903D01F0903E018FBF809132017F
:1005400090913301A0913401B0913501260137011A
:10055000481A590A6A0A7B0A80912E0190912F014C
:100560008230910509F471C034F4009789F081302C
:10057000910539F163C18630910509F4FEC08730D9
:10058000910509F424C18330910509F057C188C051
:100590004217530709F05AC11092310110923001ED
:1005A00010932F0100932E01C0923201D09233019B
:1005B000E0923401F0923501109237011092360129
:1005C00045C142175307B1F0209102013091030158
:1005D000A90160E070E0441655066606770608F447
:1005E00005C19093310180933001D0932F01C093C6
:1005F0002E01D0C08091060190910701A0E0B0E0EB
:1006000084159505A605B70508F020C1E0911C01E9
:10061000F0911D01309709F00995E0911E01F091CC
:100620001F01309729F080912001909121010995B7
:1006300080912E0190912F01909331018093300190
:10064000B0922F01A0922E0101C160910201709120
:1006500003014217530749F46B01E12CF12C4C14B0
:100660005D046E047F0408F4C1C0CB01A0E0B0E0DB
:10067000481659066A067B0608F4E8C080913601E0
:100680009091370101969093370180933601D09372
:100690003101C093300130922F0120922E01D6C03B
:1006A0004217530749F4909331018093300110931E
:1006B0002F0100932E016EC040910401509105015D
:1006C00060E070E080913601909137014415550546
:1006D0006605770540F02091380130913901821785
:1006E000930709F0B3C08130910591F4E0910A01BC
:1006F000F0910B01309709F00995E0910C01F09110
:100700000D01309729F180910E0190910F011FC0CA
:10071000029761F4E0911001F0911101309709F016
:100720000995E0911201F09113010BC0E0911601BF
:10073000F0911701309709F00995E0911801F091B7
:100740001901309729F080911401909115010995B4
:1007500010922F0110922E0110923101109230014F
:10076000109237011092360110923201109233012B
:10077000109234011092350169C04217530799F065
:10078000909331018093300187E090E090932F01A6
:1007900080932E01C0923201D0923301E092340155
:1007A000F092350153C0E0912801F0912901309772
:1007B00009F00995E0912A01F0912B01309709F495
:1007C00045C080912C0190912D0109953FC0609109
:1007D00002017091030142175307A9F49B0140E005
:1007E00050E0421653066406750668F42091300105
:1007F00030913101909331018093300130932F017A
:1008000020932E0123C0CB01A0E0B0E0481659068A
:100810006A067B06D8F0E0912201F091230130971F
:1008200009F00995E0912401F0912501309709F430
:100830008FCF809126019091270189CF909331012C
:100840008093300110922F0110922E016AE070E027
:1008500080E090E00E943A018114910409F434CEC2
:100860000E94000031CEE0E0F1E082E390E093836B
:10087000828380E991E09583848380E293E097838B
:100880008683138612861586148617861686118A25
:10089000108A138A128A158A148A178A168A118E68
:1008A000108E138E128E158E148E178E168E11A228
:1008B00010A213A212A215A214A211A610A613A68A
:1008C00012A615A614A617A616A611AA10AA81E0AC
:1008D00090E091AF80AF8FE090E0918380831186AC
:1008E000108662E00C94D900EE0FFF1F0590F49182
:0808F000E02D0994F894FFCFFC
:00000001FF
